:100000000C942A000C9447000C9447000C94470071
:100010000C9447000C9447000C9447000C94470044
:100020000C9447000C9447000C9447000C94470034
:100030000C9447000C9447000C9447000C94470024
:100040000C9447000C9447000C9447000C94470014
:100050000C94470011241FBECFE5D8E0DEBFCDBF12
:1000600011E0A0E6B0E0E8E0FDE102C005900D92ED
:10007000AC36B107D9F721E0ACE6B1E001C01D9282
:10008000A639B207E1F70E94C80A0C94820E0C94BC
:1000900000009C0183E083BF83E808C082BF98B75B
:1000A000916098BFA89508B600FEFDCF2150310998
:1000B000A8F713BE08959C0183E083BF8EEF08C0AC
:1000C00082BF98B7916098BFA89508B600FEFDCF93
:1000D00021503109A8F713BE0895662311F0C09A84
:1000E00001C0C098C19882BB8FEF81BBC29A00004B
:1000F00000000000C2980895C098C19A11BA90B348
:10010000C29A00000000000011BA90B3C29899236F
:100110009CF30E946D000895B89AB99ABA9A80E14A
:1001200090E00E94490060E080E30E946D0085E05D
:1001300090E00E94490060E080E30E946D0081E051
:1001400090E00E94490060E08CE30E947C0060E047
:100150008CE00E947C0060E086E00E947C0060E011
:1001600081E00E947C00089560E081E00E947C00B4
:100170000895CF93C62F98E2899FC00D112460E0A7
:1001800082E00E947C00CC2331F060E084E10E9498
:100190007C00C150D1F7CF91089561E00E947C00AE
:1001A0000895CF93DF93EC012196FC018081882391
:1001B00031F061E00E947C0089918111FACFDF91DA
:1001C000CF91089514BA74B321E030E0A90102C0C0
:1001D000440F551F6A95E2F7572F542B54BB55B364
:1001E0004095452345BB45B30496082E02C0220F17
:1001F000331F0A94E2F7242B25BB23B330E002C05F
:10020000359527958A95E2F781E090E020FF02C0BE
:1002100080E090E008950F931F93CF93DF9300E069
:1002200010E018C0BE01C8010E94E200009749F02A
:10023000CC0FDD1FCC0FDD1FC00FD11FCE010196EB
:100240000CC02196C430D10569F70F5F1F4F0430F1
:10025000110519F0C0E0D0E0E5CFDF91CF911F91FB
:100260000F910895BF92CF92DF92EF92FF920F937A
:100270001F93CF93DF9340916E0150916F0114163D
:1002800015060CF060C0E0E7F1E060817181028149
:100290001381C480D580B084E0E6F0E0E12CF12C3D
:1002A00080E090E0DF01208131812115310579F472
:1002B000C281D381CD2B59F4C481D581CD2B39F4A2
:1002C000C681CE3421F42FEFE21AF20A2BC0261792
:1002D000370741F512962D913C911397201731075E
:1002E00009F514962D913C9115972C153D05D1F4E7
:1002F00016962C912B1116C0FC01EE0FFF1FEE0F6E
:10030000FF1FEE0FFF1FE81BF90BE05AFF4F118292
:10031000108213821282158214828EE4868381E019
:1003200090E016C0019637968417950709F0BACF6A
:1003300085E0E816F10451F410926D0110926C0101
:1003400080E090E005C080E090E002C080E090E0B6
:10035000DF91CF911F910F91FF90EF90DF90CF90A1
:10036000BF9008950F931F93CF93DF93CDB7DEB760
:1003700061970FB6F894DEBF0FBECDBF0E94B400E8
:1003800087E990E00E94D10060E081E00E94B9001E
:10039000E0E7F1E080851F928F9385818F938481C0
:1003A0008F9383818F9382818F9381818F938081BB
:1003B0008F9384EA90E09F938F938E010F5F1F4F7E
:1003C0001F930F930E94980BC8010E94D1000FB693
:1003D000F894DEBF0FBECDBF61960FB6F894DEBFB6
:1003E0000FBECDBFDF91CF911F910F910895EF9276
:1003F000FF920F931F93CF93DF93CDB7DEB7A297F2
:100400000FB6F894DEBF0FBECDBF0E94B40060E00F
:1004100080E00E94B90086EB90E00E94D100ECE8F9
:10042000F1E085818F9384818F9383818F93828183
:100430008F9381818F9380818F930BEB10E01F93BB
:100440000F93CE0101967C019F938F930E94980B8E
:10045000C7010E94D10060E081E00E94B9008AECEF
:1004600090E00E94D100E9E7F1E085818F938481DB
:100470008F9383818F9382818F9381818F938081EA
:100480008F931F930F938E010E5E1F4F1F930F9339
:100490000E94980BC8010E94D1000FB6F894DEBFED
:1004A0000FBECDBFA2960FB6F894DEBF0FBECDBF74
:1004B000DF91CF911F910F91FF90EF9008950F93CF
:1004C0001F93CF93DF93CDB7DEB7A2970FB6F89403
:1004D000DEBF0FBECDBF0E94B40060E080E00E948E
:1004E000B90086E0E1E3F1E0DE01119601900D92A2
:1004F0008A95E1F7CE0101960E94D10060E081E08B
:100500000E94B900E2E8F1E0848195812CE330E0BB
:10051000B9010E94700B9F938F9382819381B901DF
:100520000E94700B9F938F9381818F9380818F9313
:1005300080ED90E09F938F938E010E5E1F4F1F936F
:100540000F930E94980BC8010E94D1000FB6F89437
:10055000DEBF0FBECDBFA2960FB6F894DEBF0FBEB2
:10056000CDBFDF91CF911F910F9108950F931F93EE
:10057000CF93DF930E94B40060E080E00E94B90056
:1005800082EE90E00E94D10060E081E00E94B9001C
:100590008FEE90E00E94D10084EF91E00E9449002C
:1005A000E9E7F1E01182108213821282158214822F
:1005B00017821682ECE8F1E0118210821382128217
:1005C0001582148217821682EF0109E711E05EC0DE
:1005D0008031910509F049C041C02E813F812F5FD4
:1005E0003F4F2A30310519F03F832E8308C01F8208
:1005F0001E822C813D812F5F3F4F3D832C832C81B8
:100600003D812C33310541F41D821C822A813B81BE
:100610002F5F3F4F3B832A832A813B812C33310557
:1006200041F41B821A82288139812F5F3F4F398321
:1006300028830D9769F488819981F80191838083DB
:100640008A819B81938382838C819D81958384831E
:100650000E94F70184E690E00E9449000E940B018D
:100660008F30910509F0B9CF11C00C9779F4F801DA
:1006700011821082138212821582148219821882CA
:100680001B821A821D821C820E94F7010E940B01AC
:100690008E30910509F09CCFDF91CF911F910F9182
:1006A0000895809176019091770101968A309105A5
:1006B00029F0909377018093760109C0E0E7F1E09B
:1006C0001782168284819581019695838483809117
:1006D000740190917501CC9749F4E0E7F1E015823F
:1006E0001482828193810196938382832091720187
:1006F000309173012C33310569F4E0E7F1E01382A6
:100700001282808191810196918380838C30910542
:1007100031F509C080917001909171018C30910583
:10072000F1F4232B91F58091740190917501892B3F
:1007300061F58091760190917701892B01F5809187
:1007400078018035E1F481E4809378010895809107
:1007500078018134D1F480E58093780108950D9774
:10076000A1F481E090E0909371018093700108956D
:100770008091760190917701892B49F308958091BA
:10078000720190917301892B99F308952F923F92F2
:100790004F925F926F927F928F929F92AF92BF9291
:1007A000CF92DF92EF92FF920F931F93CF93DF933D
:1007B000CDB7DEB7E6970FB6F894DEBF0FBECDBF5C
:1007C0008AE0E3E8F0E0DE01119601900D928A954F
:1007D000E1F78AE0EDE8F0E0DE011B9601900D9272
:1007E0008A95E1F7812C912C0F2EFDEF6F2EF0E012
:1007F0007F2EF02D5E0126E2A20EB11C00E711E073
:100800000F2EFCE02F2EF02D312C0F2EF4EA4F2E60
:10081000F0E05F2EF02D6E0135E1C30ED11C7AC0E1
:100820008D30910541F48114910409F47AC081E07E
:10083000881A91080CC00F9751F494E0891691041E
:1008400021F0EFEF8E1A9E0A02C0812C912C0E949B
:10085000B400F401EE0FFF1F21E030E02C0F3D1F2C
:10086000E20FF31FE284F384FF92EF9281818F9372
:1008700080818F937F926F92BF92AF920E94980B6C
:1008800060E080E00E94B900C5010E94D10060E0F4
:1008900081E00E94B900F801808191818E0D9F1D39
:1008A0000FB6F894DEBF0FBECDBF8C3091052CF093
:1008B0002085203529F020E504C0F801208501C0FD
:1008C00021E4622D732D0E94700B009711F4822D8C
:1008D000932D1F922F93F80125812F9324812F931D
:1008E00023812F9322812F939F938F935F924F9217
:1008F000DF92CF920E94980BC6010E94D1000E9405
:10090000510384E690E00E9449000FB6F894DEBFE0
:100910000FBECDBF0E940B018E30910509F080CF34
:1009200005C06894882482F8912C91CFE6960FB682
:10093000F894DEBF0FBECDBFDF91CF911F910F9115
:10094000FF90EF90DF90CF90BF90AF909F908F90EF
:100950007F906F905F904F903F902F90089580917F
:1009600088019091890101968A30910529F0909330
:1009700089018093880109C0E2E8F1E017821682BC
:10098000848195810197958384832091860130919C
:100990008701121613068CF4E2E8F1E0C90160E168
:1009A0007EE00E94700B71836083C9016CE370E08C
:1009B0000E94700B73836283089581E090E09093AE
:1009C0008B0180938A010E945F0208952F923F92CB
:1009D0004F925F926F927F928F929F92AF92BF924F
:1009E000CF92DF92EF92FF920F931F93CF93DF93FB
:1009F000CDB7DEB769970FB6F894DEBF0FBECDBF97
:100A0000FE01319686E1DF011D928A95E9F70E9489
:100A1000B40060E080E00E94B9008DE291E00E94A5
:100A2000D10060E081E00E94B90087E391E00E947C
:100A3000D10084EF91E00E94490000E010E00F2E09
:100A4000F3E4CF2EF1E0DF2EF02D7E01B7E1EB0EC7
:100A5000F11C0F2EF5E08F2E912CF02D0F2EF9E0CA
:100A60002F2EF02D312C6894AA24A1F8B12C4E2CF5
:100A70005F2C288E398E0F2EF3E06F2E712CF02D07
:100A800002301105C9F0C8018B7F039739F0063099
:100A9000110501F10A30110559F18FC1602F81E074
:100AA0000E94B90080E20E94CD0088EC90E00E9494
:100AB00049000F5F1F4FF6C162E081E00E94B9005C
:100AC00088E40E94CD0088EC90E00E94490003E099
:100AD00010E0D6CF66E081E00E94B9008DE40E946C
:100AE000CD0088EC90E00E94490007E010E0C8CFFC
:100AF0006AE081E00E94B90083E50E94CD0088ECA5
:100B000090E00E944900D2C18F30910509F081C068
:100B10000115110561F489819A818230910519F4DA
:100B20001A8219821AC101969A83898316C10130EB
:100B30001105E1F489819A81029760F48B819C818F
:100B40008930910519F41C821B8207C101969C8390
:100B50008B8303C18B819C818330910519F41C82A6
:100B60001B82FBC001969C838B83F7C00430110568
:100B700019F00830110519F5F801EE0FFF1F21E0FB
:100B800030E02C0F3D1FE20FF31F808191818530F3
:100B9000910541F4F801EE0FFF1FE20FF31F1182E0
:100BA0001082DBC0F801EE0FFF1FA1E0B0E0AC0F38
:100BB000BD1FEA0FFB1F019691838083CEC00530D5
:100BC000110521F00930110509F0C7C0F801EE0F39
:100BD000FF1F21E030E02C0F3D1FE20FF31F80814B
:100BE00091818930910541F4F801EE0FFF1FE20F6A
:100BF000F31F11821082B1C0F801EE0FFF1FA1E0B8
:100C0000B0E0AC0FBD1FEA0FFB1F019691838083FC
:100C1000A4C08D30910509F086C00115110559F465
:100C200089819A81009719F4BA82A98296C00197A6
:100C30009A83898392C001301105E1F489819A81F8
:100C4000029768F48B819C81009729F4B88DBB834F
:100C5000298D2C8382C001979C838B837EC08B81DE
:100C60009C81009719F47C826B8277C001979C83EA
:100C70008B8373C00430110519F00830110531F56C
:100C8000F801EE0FFF1F81E090E08C0F9D1FE80F31
:100C9000F91F80819181009761F4F801EE0FFF1F29
:100CA000A1E0B0E0AC0FBD1FEA0FFB1F9182808274
:100CB00054C0F801EE0FFF1F21E030E02C0F3D1F64
:100CC000E20FF31F01979183808347C00530110520
:100CD00021F00930110509F040C0F801EE0FFF1FA7
:100CE00081E090E08C0F9D1FE80FF91F80819181BA
:100CF000009761F4F801EE0FFF1FA1E0B0E0AC0F28
:100D0000BD1FEA0FFB1F2082318227C0F801EE0FC2
:100D1000FF1F21E030E02C0F3D1FE20FF31F019772
:100D2000918380831AC00C97C1F488EC90E00E94F4
:100D300049000115110509F440C00430110519F0EE
:100D40000830110519F40350110937C00150110979
:100D500088EC90E00E94490030C0602F81E00E9442
:100D6000B90080E20E94CD0088EC90E00E9449002A
:100D7000602F81E00E94B900F801EE0FFF1F81E0B3
:100D800090E08C0F9D1FE80FF91F81818F93808168
:100D90008F93DF92CF92FF92EF920E94980B842D57
:100DA000952D0E94D10088EC90E00E9449000F90A0
:100DB0000F900F900F900F900F900E940B018031B9
:100DC000910509F0A1CE01301105B1F489819A8114
:100DD0009C01220F331F880F991F880F991F880FBE
:100DE000991F820F931F2B813C81820F931F909339
:100DF00083018093820131C005301105B1F48985EA
:100E00009A859C01220F331F880F991F880F991F05
:100E1000880F991F820F931F2B853C85820F931F8C
:100E2000909385018093840118C009301105A9F4BD
:100E300089899A899C01220F331F880F991F880F77
:100E4000991F880F991F820F931F2B893C89820F4E
:100E5000931F9093870180938601E2E8F1E040813F
:100E6000518180E19EE0489F9001499F300D589F3D
:100E7000300D112484819581820F931F428153810B
:100E80006CE3649F9001659F300D1124820F931FC6
:100E900095838483178216820F5F1F4F88EC90E042
:100EA0000E9449000B3011050CF4EACD69960FB68B
:100EB000F894DEBF0FBECDBFDF91CF911F910F9190
:100EC000FF90EF90DF90CF90BF90AF909F908F906A
:100ED0007F906F905F904F903F902F9008952F924A
:100EE0003F924F925F926F927F928F929F92AF92BA
:100EF000BF92CF92DF92EF92FF920F931F93CF9307
:100F0000DF93CDB7DEB763970FB6F894DEBF0FBEA1
:100F1000CDBFFE01319680E1DF011D928A95E9F790
:100F20000E94B40060E080E00E94B90080916C01F2
:100F300090916D01019729F486E491E00E94D1001F
:100F400004C080E591E00E94D10060E081E00E9451
:100F5000B90089E591E00E94D10084EF91E00E9400
:100F6000490000E010E00F2EF0E53F2EF02D0F2E8F
:100F7000F3E4CF2EF1E0DF2EF02D7E01B1E1EB0E98
:100F8000F11C0F2EF5E08F2E912CF02D212CAA2490
:100F9000A394B12C4E2C5F2C29E02A8B2B8A6894C9
:100FA000662461F8712C0230110521F0053011051D
:100FB00009F083C1602F81E00E94B9008AE30E949A
:100FC000CD0088EC90E00E9449000F5F1F4F5FC288
:100FD0008F30910509F08EC00115110551F48981FA
:100FE0009A81019719F41A82198265C2BA82A9827C
:100FF00062C201301105E1F489819A81892B61F483
:101000008B819C818930910519F41C821B8253C20B
:1010100001969C838B834FC28B819C81823091058A
:1010200019F41C821B8247C201969C838B8343C2A6
:101030000330110519F00630110539F5F801EE0FEE
:10104000FF1F81E090E08C0F9D1FE80FF91F80814A
:1010500091818530910561F4F801EE0FFF1FA1E049
:10106000B0E0AC0FBD1FEA0FFB1F11821082EEC073
:10107000F801EE0FFF1F21E030E02C0F3D1FE20FC3
:10108000F31F019691838083E1C00430110519F0AC
:101090000730110539F5F801EE0FFF1F81E090E0F0
:1010A0008C0F9D1FE80FF91F808191818930910578
:1010B00061F4F801EE0FFF1FA1E0B0E0AC0FBD1F1F
:1010C000EA0FFB1F11821082C1C0F801EE0FFF1F53
:1010D00021E030E02C0F3D1FE20FF31F01969183BA
:1010E0008083B4C00830110509F0E5C131E4331242
:1010F000F2C1F6C18D30910509F08EC001151105C0
:1011000051F489819A81892B19F4BA82A982D3C1B9
:101110001A821982D0C101301105E1F489819A81C6
:10112000892B69F48B819C81009729F48A898B83B0
:101130009B899C83C0C101979C838B83BCC18B819D
:101140009C81009719F47C826B82B5C101979C83C6
:101150008B83B1C10330110519F00630110511F56B
:10116000F801EE0FFF1FA1E0B0E0AC0FBD1FEA0FCA
:10117000FB1F80819181009741F4F801EE0FFF1F62
:10118000EA0FFB1F9182808261C0F801EE0FFF1F02
:1011900021E030E02C0F3D1FE20FF31F01979183F8
:1011A000808354C00430110519F00730110539F55A
:1011B000F801EE0FFF1F81E090E08C0F9D1FE80FFC
:1011C000F91F80819181009769F4F801EE0FFF1FEC
:1011D000A1E0B0E0AC0FBD1FEA0FFB1FB9E0B08388
:1011E000218234C0F801EE0FFF1F21E030E02C0F08
:1011F0003D1FE20FF31F01979183808327C00830C2
:10120000110509F058C130E5331609F46EC10F2EEF
:10121000F0E53F2EF02D6DC10C97C1F488EC90E005
:101220000E9449000115110509F447C0033011055A
:1012300019F00630110519F4025011093EC0015091
:10124000110988EC90E00E94490037C0602F81E0CE
:101250000E94B90080E20E94CD0088EC90E00E94DC
:101260004900602F81E00E94B90008301105F1F0BB
:10127000F801EE0FFF1F81E090E08C0F9D1FE80F3B
:10128000F91F81818F9380818F93DF92CF92FF929C
:10129000EF920E94980B842D952D0E94D1000F9003
:1012A0000F900F900F900F900F9003C0832D0E940E
:1012B000CD0088EC90E00E9449000E940B01803133
:1012C000910509F085CE80916C0190916D01019797
:1012D00009F087C00130110519F580916E019091D8
:1012E0006F01FC01EE0FFF1FEE0FFF1FEE0FFF1F40
:1012F000E81BF90BE05AFF4F89819A819C01220F6C
:10130000331F880F991F880F991F880F991F820F0D
:10131000931F2B813C81820F931F918380834CC04C
:101320000430110519F580916E0190916F01FC0157
:10133000EE0FFF1FEE0FFF1FEE0FFF1FE81BF90B55
:10134000E05AFF4F8F8198859C01220F331F880F31
:10135000991F880F991F880F991F820F931F298546
:101360003A85820F931F938382838BC007301105C8
:1013700019F580916E0190916F01FC01EE0FFF1F36
:10138000EE0FFF1FEE0FFF1FE81BF90BE05AFF4F98
:101390008D859E859C01220F331F880F991F880F12
:1013A000991F880F991F820F931F2F853889820FED
:1013B000931F9583848365C00830110509F061C0CF
:1013C00080916E0190916F01FC01EE0FFF1FEE0FF7
:1013D000FF1FEE0FFF1FE81BF90BE05AFF4F36828D
:1013E00050C001301105B1F489819A819C01220F0E
:1013F000331F880F991F880F991F880F991F820F1D
:10140000931F2B813C81820F931F909371018093D6
:10141000700132C004301105B1F48F8198859C01B0
:10142000220F331F880F991F880F991F880F991F4C
:10143000820F931F29853A85820F931F9093730122
:10144000809372011EC007301105B1F48D859E8511
:101450009C01220F331F880F991F880F991F880F37
:10146000991F820F931F2F853889820F931F9093A6
:1014700075018093740105C00830110511F4309294
:1014800078010F5F1F4F84E690E00E944900093009
:1014900011050CF488CD80916C0190916D0101973C
:1014A000C1F580916E0190916F01019690936F014B
:1014B00080936E012EC0602F81E00E94B90080E20F
:1014C0000E94CD0088EC90E00E944900602F81E0EE
:1014D0000E94B900CDCE0F2EF1E43F2EF02D09C0B1
:1014E0000F2EF0E53F2EF02D04C00F2EF1E43F2E1D
:1014F000F02D602F81E00E94B90080E20E94CD00B3
:1015000088EC90E00E944900602F81E00E94B900C1
:10151000CDCE63960FB6F894DEBF0FBECDBFDF9180
:10152000CF911F910F91FF90EF90DF90CF90BF90E0
:10153000AF909F908F907F906F905F904F903F9073
:101540002F900895CF93DF93CAE0D0E0C39A80E351
:1015500090E00E945B00C39880E390E00E945B00F3
:101560002197A1F7DF91CF910895CF93DF93C8E53D
:10157000D2E0C39A80E390E00E945B00C39880E3CE
:1015800090E00E945B002197A1F7DF91CF91089531
:10159000BB9A14BA0E948C000E94B40084E691E0C9
:1015A0000E94D10088EE93E00E9449000E94B4009E
:1015B000E0E7F1E085E090E09183808383E290E0D2
:1015C00093838283158214821782168280E5808736
:1015D000E12CF12C00E010E00F2EF2E8AF2EF1E04C
:1015E000BF2EF02D812C912CCC24C394D12C02C081
:1015F0000C2D1D2D0E94B4000E94B2010E940B010F
:10160000EC0101151105A1F38430910579F4C09224
:101610006C01D0926D0188EC90E00E9449000E941C
:101620006F0788EC90E00E94490015C08830910552
:1016300069F488EC90E00E9449000E94E60488EC7E
:1016400090E00E944900EC2CFD2C09C00C9719F485
:101650000E94B60204C0609711F40E94C60381E0A4
:10166000E816F104E9F40E945F020E94AF040E94B0
:101670005103F50180859185019791F408C00E947E
:10168000B50A8CE291E00E9449000E9451030E9439
:101690000B010E97A1F7F50111861086E82CF92CA5
:1016A00080916C0190916D01019799F40E94320133
:1016B000019779F40AC00E94A20A84E690E00E9491
:1016C00049000E9451030E94B2010E940B010E9733
:1016D00091F70E94510384E690E00E9449008ACF6E
:1016E00097FB072E16F4009407D077FD09D00E94CF
:1016F000840B07FC05D03EF4909581959F4F08958B
:10170000709561957F4F0895AA1BBB1B51E107C0DF
:10171000AA1FBB1FA617B70710F0A61BB70B881F81
:10172000991F5A95A9F780959095BC01CD01089510
:10173000AEE0B0E0EEE9FBE00C94590E0D891E8995
:1017400086E08C831A8309838FEF9FE79E838D83C6
:10175000AE01475E5F4F6F89788DCE0101960E9482
:10176000BA0BEF81F885E00FF11F10822E96E4E0AE
:101770000C94750EABE0B0E0E0ECFBE00C944B0E8B
:101780006C017B018A01FC0117821682838181FF33
:10179000CCC1CE0101963C01F6019381F70193FD86
:1017A000859193FF81917F01882309F4BAC1853225
:1017B00039F493FD859193FF81917F01853229F45E
:1017C000B60190E00E94B10DE7CF912C212C312C75
:1017D000FFE1F315D8F08B3279F038F4803279F0EC
:1017E0008332A1F4232D20611DC08D3261F080333E
:1017F00069F4232D216016C0832D8260382EE32DDD
:10180000E4603E2E2AC0F32DF8601DC037FC2DC0C9
:1018100020ED280F2A3040F08E32B9F436FC81C119
:10182000232D2064322E19C036FE06C08AE0989E11
:10183000200D1124922E11C0EAE02E9E200D1124BD
:10184000222EF32DF0623F2E08C08C3621F4832D1A
:101850008068382E02C0883641F4F70193FD8591E7
:1018600093FF81917F018111B3CF982F9F7D955474
:10187000933028F40C5F1F4F9FE399830DC083368C
:1018800031F0833771F0833509F059C021C0F80178
:10189000808189830E5F1F4F88248394912C53018C
:1018A00013C02801F2E04F0E511CF801A080B18056
:1018B00036FE03C0692D70E002C06FEF7FEFC501F7
:1018C0000E94A60D4C018201F32DFF773F2E16C01A
:1018D000280122E0420E511CF801A080B18036FEA2
:1018E00003C0692D70E002C06FEF7FEFC5010E9459
:1018F0009B0D4C01F32DF0683F2E820133FC1BC081
:10190000822D90E088169906B0F4B60180E290E04E
:101910000E94B10D2A94F4CFF50137FC859137FE72
:1019200081915F01B60190E00E94B10D21102A94CF
:1019300021E0821A91088114910471F7E8C084367D
:1019400011F0893641F5F80137FE07C060817181D9
:10195000828193810C5F1F4F08C060817181072EC7
:10196000000C880B990B0E5F1F4FF32DFF763F2E57
:1019700097FF09C090958095709561957F4F8F4F27
:101980009F4FF0683F2E2AE030E0A3010E94ED0D4A
:10199000882E861845C0853731F4232D2F7EB22E30
:1019A0002AE030E025C0932D997FB92E8F36C1F003
:1019B00018F4883579F0B5C0803719F0883721F0F0
:1019C000B0C0E92FE061BE2EB4FE0DC0FB2DF46067
:1019D000BF2E09C034FE0AC0292F2660B22E06C0D1
:1019E00028E030E005C020E130E002C020E132E034
:1019F000F801B7FE07C060817181828193810C5F1D
:101A00001F4F06C06081718180E090E00E5F1F4F24
:101A1000A3010E94ED0D882E8618FB2DFF773F2E27
:101A200036FE0DC0232D2E7FA22E891458F434FECD
:101A30000BC032FC09C0832D8E7EA82E05C0B82CA9
:101A4000A32C03C0B82C01C0B92CA4FE0FC0FE010A
:101A5000E80DF11D8081803321F49A2D997EA92E05
:101A600009C0A2FE06C0B394B39404C08A2D867840
:101A700009F0B394A3FC11C0A0FE06C0B21488F410
:101A8000280C922C9B180EC0B21460F4B60180E2B0
:101A900090E00E94B10DB394F7CFB21418F42B1854
:101AA00002C0982C212CA4FE10C0B60180E390E067
:101AB0000E94B10DA2FE17C0A1FC03C088E790E010
:101AC00002C088E590E0B6010CC08A2D867859F0F6
:101AD000A1FE02C08BE201C080E2A7FC8DE2B6014C
:101AE00090E00E94B10D891438F4B60180E390E0D3
:101AF0000E94B10D9A94F7CF8A94F301E80DF11D7D
:101B00008081B60190E00E94B10D8110F5CF2220B6
:101B100009F442CEB60180E290E00E94B10D2A9411
:101B2000F6CFF6018681978102C08FEF9FEF2B964B
:101B3000E2E10C94670EFC010590615070400110C9
:101B4000D8F7809590958E0F9F1F0895FC016150E6
:101B5000704001900110D8F7809590958E0F9F1FCF
:101B600008950F931F93CF93DF93FB01238121FDF2
:101B700003C08FEF9FEF2CC022FF16C04681578114
:101B8000248135814217530744F4A081B1819D011E
:101B90002F5F3F4F318320838C93268137812F5FC6
:101BA0003F4F3783268314C08B01EC01FB01008477
:101BB000F185E02D0995892BE1F6D80116968D91D6
:101BC0009C911797019617969C938E931697CE012A
:101BD000DF91CF911F910F910895FA01AA27283024
:101BE00051F1203181F1E8946F936E7F6E5F7F4FEA
:101BF0008F4F9F4FAF4FB1E03ED0B4E03CD0670F66
:101C0000781F891F9A1FA11D680F791F8A1F911DB8
:101C1000A11D6A0F711D811D911DA11D20D009F408
:101C200068943F912AE0269F11243019305D31934A
:101C3000DEF6CF010895462F4770405D4193B3E033
:101C40000FD0C9F7F6CF462F4F70405D4A3318F0DA
:101C5000495D31FD4052419302D0A9F7EACFB4E08B
:101C6000A6959795879577956795BA95C9F7009743
:101C70006105710508959B01AC010A2E06945795E4
:101C8000479537952795BA95C9F7620F731F841F3B
:101C9000951FA01D08952F923F924F925F926F92D1
:101CA0007F928F929F92AF92BF92CF92DF92EF92EC
:101CB000FF920F931F93CF93DF93CDB7DEB7CA1B6D
:101CC000DB0B0FB6F894DEBF0FBECDBF09942A8898
:101CD000398848885F846E847D848C849B84AA8440
:101CE000B984C884DF80EE80FD800C811B81AA81CD
:101CF000B981CE0FD11D0FB6F894DEBF0FBECDBF98
:081D0000ED010895F894FFCFF6
:101D08000000000000004E0000000000004E00002F
:101D1800000000004E0000000000004E000000001F
:101D280000004E050111011A0121012701000003DD
:101D38000008000B00100043555252454E542054E1
:101D4800494D4500253032643A253032643A253011
:101D5800326425634D0053573A2000253032643AE7
:101D6800253032643A25303264004C61703A2000E4
:101D7800253032644820253032644D2025303264C5
:101D8800530053573A2030303A30303A3030004C14
:101D980061703A2030303A30303A303000257320C4
:101DA8002B256448004C6F7320416E67656C657322
:101DB800004E657720596F726B004C6F6E646F6EC2
:101DC80000447562616900546F6B796F0053455424
:101DD8002054494D4552003030482030304D203095
:101DE80030530025640053455420414C41524D0066
:101DF8005345542054494D450030303A30303A303C
:0C1E080030504D004C4344204F4E000071
:00000001FF
